{
  "_format": "hh-sol-artifact-1",
  "contractName": "Token",
  "sourceName": "contracts/tokenFactory.sol",
  "abi": [
    {
      "inputs": [
        {
          "internalType": "address",
          "name": "owner",
          "type": "address"
        },
        {
          "internalType": "uint256",
          "name": "initialSupply",
          "type": "uint256"
        },
        {
          "internalType": "string",
          "name": "name",
          "type": "string"
        },
        {
          "internalType": "string",
          "name": "symbol",
          "type": "string"
        }
      ],
      "stateMutability": "nonpayable",
      "type": "constructor"
    },
    {
      "anonymous": false,
      "inputs": [
        {
          "indexed": true,
          "internalType": "address",
          "name": "owner",
          "type": "address"
        },
        {
          "indexed": true,
          "internalType": "address",
          "name": "spender",
          "type": "address"
        },
        {
          "indexed": false,
          "internalType": "uint256",
          "name": "value",
          "type": "uint256"
        }
      ],
      "name": "Approval",
      "type": "event"
    },
    {
      "anonymous": false,
      "inputs": [
        {
          "indexed": true,
          "internalType": "address",
          "name": "from",
          "type": "address"
        },
        {
          "indexed": true,
          "internalType": "address",
          "name": "to",
          "type": "address"
        },
        {
          "indexed": false,
          "internalType": "uint256",
          "name": "value",
          "type": "uint256"
        }
      ],
      "name": "Transfer",
      "type": "event"
    },
    {
      "inputs": [
        {
          "internalType": "address",
          "name": "owner",
          "type": "address"
        },
        {
          "internalType": "address",
          "name": "spender",
          "type": "address"
        }
      ],
      "name": "allowance",
      "outputs": [
        {
          "internalType": "uint256",
          "name": "",
          "type": "uint256"
        }
      ],
      "stateMutability": "view",
      "type": "function"
    },
    {
      "inputs": [
        {
          "internalType": "address",
          "name": "spender",
          "type": "address"
        },
        {
          "internalType": "uint256",
          "name": "amount",
          "type": "uint256"
        }
      ],
      "name": "approve",
      "outputs": [
        {
          "internalType": "bool",
          "name": "",
          "type": "bool"
        }
      ],
      "stateMutability": "nonpayable",
      "type": "function"
    },
    {
      "inputs": [
        {
          "internalType": "address",
          "name": "account",
          "type": "address"
        }
      ],
      "name": "balanceOf",
      "outputs": [
        {
          "internalType": "uint256",
          "name": "",
          "type": "uint256"
        }
      ],
      "stateMutability": "view",
      "type": "function"
    },
    {
      "inputs": [],
      "name": "decimals",
      "outputs": [
        {
          "internalType": "uint8",
          "name": "",
          "type": "uint8"
        }
      ],
      "stateMutability": "view",
      "type": "function"
    },
    {
      "inputs": [
        {
          "internalType": "address",
          "name": "spender",
          "type": "address"
        },
        {
          "internalType": "uint256",
          "name": "subtractedValue",
          "type": "uint256"
        }
      ],
      "name": "decreaseAllowance",
      "outputs": [
        {
          "internalType": "bool",
          "name": "",
          "type": "bool"
        }
      ],
      "stateMutability": "nonpayable",
      "type": "function"
    },
    {
      "inputs": [
        {
          "internalType": "address",
          "name": "spender",
          "type": "address"
        },
        {
          "internalType": "uint256",
          "name": "addedValue",
          "type": "uint256"
        }
      ],
      "name": "increaseAllowance",
      "outputs": [
        {
          "internalType": "bool",
          "name": "",
          "type": "bool"
        }
      ],
      "stateMutability": "nonpayable",
      "type": "function"
    },
    {
      "inputs": [],
      "name": "name",
      "outputs": [
        {
          "internalType": "string",
          "name": "",
          "type": "string"
        }
      ],
      "stateMutability": "view",
      "type": "function"
    },
    {
      "inputs": [],
      "name": "symbol",
      "outputs": [
        {
          "internalType": "string",
          "name": "",
          "type": "string"
        }
      ],
      "stateMutability": "view",
      "type": "function"
    },
    {
      "inputs": [],
      "name": "totalSupply",
      "outputs": [
        {
          "internalType": "uint256",
          "name": "",
          "type": "uint256"
        }
      ],
      "stateMutability": "view",
      "type": "function"
    },
    {
      "inputs": [
        {
          "internalType": "address",
          "name": "recipient",
          "type": "address"
        },
        {
          "internalType": "uint256",
          "name": "amount",
          "type": "uint256"
        }
      ],
      "name": "transfer",
      "outputs": [
        {
          "internalType": "bool",
          "name": "",
          "type": "bool"
        }
      ],
      "stateMutability": "nonpayable",
      "type": "function"
    },
    {
      "inputs": [
        {
          "internalType": "address",
          "name": "sender",
          "type": "address"
        },
        {
          "internalType": "address",
          "name": "recipient",
          "type": "address"
        },
        {
          "internalType": "uint256",
          "name": "amount",
          "type": "uint256"
        }
      ],
      "name": "transferFrom",
      "outputs": [
        {
          "internalType": "bool",
          "name": "",
          "type": "bool"
        }
      ],
      "stateMutability": "nonpayable",
      "type": "function"
    },
    {
      "inputs": [],
      "name": "uniswapV2Pair",
      "outputs": [
        {
          "internalType": "address",
          "name": "",
          "type": "address"
        }
      ],
      "stateMutability": "view",
      "type": "function"
    },
    {
      "inputs": [],
      "name": "uniswapV2Router",
      "outputs": [
        {
          "internalType": "contract IUniswapV2Router02",
          "name": "",
          "type": "address"
        }
      ],
      "stateMutability": "view",
      "type": "function"
    }
  ],
  "bytecode": "0x60c06040523480156200001157600080fd5b50604051620020c8380380620020c88339818101604052810190620000379190620005d7565b81818160039080519060200190620000519291906200045b565b5080600490805190602001906200006a9291906200045b565b505050600073d99d1c33f9fc3444f8101754abc46c52416550d190508073ffffffffffffffffffffffffffffffffffffffff1663c45a01556040518163ffffffff1660e01b815260040160206040518083038186803b158015620000cd57600080fd5b505afa158015620000e2573d6000803e3d6000fd5b505050506040513d601f19601f82011682018060405250810190620001089190620005ab565b73ffffffffffffffffffffffffffffffffffffffff1663c9c65396308373ffffffffffffffffffffffffffffffffffffffff1663ad5c46486040518163ffffffff1660e01b815260040160206040518083038186803b1580156200016b57600080fd5b505afa15801562000180573d6000803e3d6000fd5b505050506040513d601f19601f82011682018060405250810190620001a69190620005ab565b6040518363ffffffff1660e01b8152600401620001c5929190620006be565b602060405180830381600087803b158015620001e057600080fd5b505af1158015620001f5573d6000803e3d6000fd5b505050506040513d601f19601f820116820180604052508101906200021b9190620005ab565b73ffffffffffffffffffffffffffffffffffffffff1660a08173ffffffffffffffffffffffffffffffffffffffff1660601b815250508073ffffffffffffffffffffffffffffffffffffffff1660808173ffffffffffffffffffffffffffffffffffffffff1660601b81525050620002c4856200029d620002cf60201b60201c565b600a620002ab919062000852565b86620002b891906200098f565b620002d860201b60201c565b505050505062000be5565b60006012905090565b600073ffffffffffffffffffffffffffffffffffffffff168273ffffffffffffffffffffffffffffffffffffffff1614156200034b576040517f08c379a00000000000000000000000000000000000000000000000000000000081526004016200034290620006eb565b60405180910390fd5b6200035f600083836200045160201b60201c565b80600260008282546200037391906200079a565b92505081905550806000808473ffffffffffffffffffffffffffffffffffffffff1673ffffffffffffffffffffffffffffffffffffffff1681526020019081526020016000206000828254620003ca91906200079a565b925050819055508173ffffffffffffffffffffffffffffffffffffffff16600073ffffffffffffffffffffffffffffffffffffffff167fddf252ad1be2c89b69c2b068fc378daa952ba7f163c4a11628f55a4df523b3ef836040516200043191906200070d565b60405180910390a36200044d600083836200045660201b60201c565b5050565b505050565b505050565b828054620004699062000a71565b90600052602060002090601f0160209004810192826200048d5760008555620004d9565b82601f10620004a857805160ff1916838001178555620004d9565b82800160010185558215620004d9579182015b82811115620004d8578251825591602001919060010190620004bb565b5b509050620004e89190620004ec565b5090565b5b8082111562000507576000816000905550600101620004ed565b5090565b6000620005226200051c8462000753565b6200072a565b9050828152602081018484840111156200053b57600080fd5b6200054884828562000a3b565b509392505050565b600081519050620005618162000bb1565b92915050565b600082601f8301126200057957600080fd5b81516200058b8482602086016200050b565b91505092915050565b600081519050620005a58162000bcb565b92915050565b600060208284031215620005be57600080fd5b6000620005ce8482850162000550565b91505092915050565b60008060008060808587031215620005ee57600080fd5b6000620005fe8782880162000550565b9450506020620006118782880162000594565b935050604085015167ffffffffffffffff8111156200062f57600080fd5b6200063d8782880162000567565b925050606085015167ffffffffffffffff8111156200065b57600080fd5b620006698782880162000567565b91505092959194509250565b6200068081620009f0565b82525050565b600062000695601f8362000789565b9150620006a28262000b88565b602082019050919050565b620006b88162000a24565b82525050565b6000604082019050620006d5600083018562000675565b620006e4602083018462000675565b9392505050565b60006020820190508181036000830152620007068162000686565b9050919050565b6000602082019050620007246000830184620006ad565b92915050565b60006200073662000749565b905062000744828262000aa7565b919050565b6000604051905090565b600067ffffffffffffffff82111562000771576200077062000b3b565b5b6200077c8262000b6a565b9050602081019050919050565b600082825260208201905092915050565b6000620007a78262000a24565b9150620007b48362000a24565b9250827fffffffffffffffffffffffffffffffffffffffffffffffffffffffffffffffff03821115620007ec57620007eb62000add565b5b828201905092915050565b6000808291508390505b6001851115620008495780860481111562000821576200082062000add565b5b6001851615620008315780820291505b8081029050620008418562000b7b565b945062000801565b94509492505050565b60006200085f8262000a24565b91506200086c8362000a2e565b92506200089b7fffffffffffffffffffffffffffffffffffffffffffffffffffffffffffffffff8484620008a3565b905092915050565b600082620008b5576001905062000988565b81620008c5576000905062000988565b8160018114620008de5760028114620008e9576200091f565b600191505062000988565b60ff841115620008fe57620008fd62000add565b5b8360020a91508482111562000918576200091762000add565b5b5062000988565b5060208310610133831016604e8410600b8410161715620009595782820a90508381111562000953576200095262000add565b5b62000988565b620009688484846001620007f7565b9250905081840481111562000982576200098162000add565b5b81810290505b9392505050565b60006200099c8262000a24565b9150620009a98362000a24565b9250817fffffffffffffffffffffffffffffffffffffffffffffffffffffffffffffffff0483118215151615620009e557620009e462000add565b5b828202905092915050565b6000620009fd8262000a04565b9050919050565b600073ffffffffffffffffffffffffffffffffffffffff82169050919050565b6000819050919050565b600060ff82169050919050565b60005b8381101562000a5b57808201518184015260208101905062000a3e565b8381111562000a6b576000848401525b50505050565b6000600282049050600182168062000a8a57607f821691505b6020821081141562000aa15762000aa062000b0c565b5b50919050565b62000ab28262000b6a565b810181811067ffffffffffffffff8211171562000ad45762000ad362000b3b565b5b80604052505050565b7f4e487b7100000000000000000000000000000000000000000000000000000000600052601160045260246000fd5b7f4e487b7100000000000000000000000000000000000000000000000000000000600052602260045260246000fd5b7f4e487b7100000000000000000000000000000000000000000000000000000000600052604160045260246000fd5b6000601f19601f8301169050919050565b60008160011c9050919050565b7f45524332303a206d696e7420746f20746865207a65726f206164647265737300600082015250565b62000bbc81620009f0565b811462000bc857600080fd5b50565b62000bd68162000a24565b811462000be257600080fd5b50565b60805160601c60a05160601c6114b762000c1160003960006105650152600061038a01526114b76000f3fe608060405234801561001057600080fd5b50600436106100cf5760003560e01c8063395093511161008c57806395d89b411161006657806395d89b411461022a578063a457c2d714610248578063a9059cbb14610278578063dd62ed3e146102a8576100cf565b806339509351146101ac57806349bd5a5e146101dc57806370a08231146101fa576100cf565b806306fdde03146100d4578063095ea7b3146100f25780631694505e1461012257806318160ddd1461014057806323b872dd1461015e578063313ce5671461018e575b600080fd5b6100dc6102d8565b6040516100e99190610f33565b60405180910390f35b61010c60048036038101906101079190610d2d565b61036a565b6040516101199190610efd565b60405180910390f35b61012a610388565b6040516101379190610f18565b60405180910390f35b6101486103ac565b6040516101559190611035565b60405180910390f35b61017860048036038101906101739190610cde565b6103b6565b6040516101859190610efd565b60405180910390f35b6101966104ae565b6040516101a39190611050565b60405180910390f35b6101c660048036038101906101c19190610d2d565b6104b7565b6040516101d39190610efd565b60405180910390f35b6101e4610563565b6040516101f19190610ee2565b60405180910390f35b610214600480360381019061020f9190610c79565b610587565b6040516102219190611035565b60405180910390f35b6102326105cf565b60405161023f9190610f33565b60405180910390f35b610262600480360381019061025d9190610d2d565b610661565b60405161026f9190610efd565b60405180910390f35b610292600480360381019061028d9190610d2d565b61074c565b60405161029f9190610efd565b60405180910390f35b6102c260048036038101906102bd9190610ca2565b61076a565b6040516102cf9190611035565b60405180910390f35b6060600380546102e790611189565b80601f016020809104026020016040519081016040528092919081815260200182805461031390611189565b80156103605780601f1061033557610100808354040283529160200191610360565b820191906000526020600020905b81548152906001019060200180831161034357829003601f168201915b5050505050905090565b600061037e6103776107f1565b84846107f9565b6001905092915050565b7f000000000000000000000000000000000000000000000000000000000000000081565b6000600254905090565b60006103c38484846109c4565b6000600160008673ffffffffffffffffffffffffffffffffffffffff1673ffffffffffffffffffffffffffffffffffffffff168152602001908152602001600020600061040e6107f1565b73ffffffffffffffffffffffffffffffffffffffff1673ffffffffffffffffffffffffffffffffffffffff1681526020019081526020016000205490508281101561048e576040517f08c379a000000000000000000000000000000000000000000000000000000000815260040161048590610fb5565b60405180910390fd5b6104a28561049a6107f1565b8584036107f9565b60019150509392505050565b60006012905090565b60006105596104c46107f1565b8484600160006104d26107f1565b73ffffffffffffffffffffffffffffffffffffffff1673ffffffffffffffffffffffffffffffffffffffff16815260200190815260200160002060008873ffffffffffffffffffffffffffffffffffffffff1673ffffffffffffffffffffffffffffffffffffffff168152602001908152602001600020546105549190611087565b6107f9565b6001905092915050565b7f000000000000000000000000000000000000000000000000000000000000000081565b60008060008373ffffffffffffffffffffffffffffffffffffffff1673ffffffffffffffffffffffffffffffffffffffff168152602001908152602001600020549050919050565b6060600480546105de90611189565b80601f016020809104026020016040519081016040528092919081815260200182805461060a90611189565b80156106575780601f1061062c57610100808354040283529160200191610657565b820191906000526020600020905b81548152906001019060200180831161063a57829003601f168201915b5050505050905090565b600080600160006106706107f1565b73ffffffffffffffffffffffffffffffffffffffff1673ffffffffffffffffffffffffffffffffffffffff16815260200190815260200160002060008573ffffffffffffffffffffffffffffffffffffffff1673ffffffffffffffffffffffffffffffffffffffff1681526020019081526020016000205490508281101561072d576040517f08c379a000000000000000000000000000000000000000000000000000000000815260040161072490611015565b60405180910390fd5b6107416107386107f1565b858584036107f9565b600191505092915050565b60006107606107596107f1565b84846109c4565b6001905092915050565b6000600160008473ffffffffffffffffffffffffffffffffffffffff1673ffffffffffffffffffffffffffffffffffffffff16815260200190815260200160002060008373ffffffffffffffffffffffffffffffffffffffff1673ffffffffffffffffffffffffffffffffffffffff16815260200190815260200160002054905092915050565b600033905090565b600073ffffffffffffffffffffffffffffffffffffffff168373ffffffffffffffffffffffffffffffffffffffff161415610869576040517f08c379a000000000000000000000000000000000000000000000000000000000815260040161086090610ff5565b60405180910390fd5b600073ffffffffffffffffffffffffffffffffffffffff168273ffffffffffffffffffffffffffffffffffffffff1614156108d9576040517f08c379a00000000000000000000000000000000000000000000000000000000081526004016108d090610f75565b60405180910390fd5b80600160008573ffffffffffffffffffffffffffffffffffffffff1673ffffffffffffffffffffffffffffffffffffffff16815260200190815260200160002060008473ffffffffffffffffffffffffffffffffffffffff1673ffffffffffffffffffffffffffffffffffffffff168152602001908152602001600020819055508173ffffffffffffffffffffffffffffffffffffffff168373ffffffffffffffffffffffffffffffffffffffff167f8c5be1e5ebec7d5bd14f71427d1e84f3dd0314c0f7b2291e5b200ac8c7c3b925836040516109b79190611035565b60405180910390a3505050565b600073ffffffffffffffffffffffffffffffffffffffff168373ffffffffffffffffffffffffffffffffffffffff161415610a34576040517f08c379a0000000000000000000000000000000000000000000000000000000008152600401610a2b90610fd5565b60405180910390fd5b600073ffffffffffffffffffffffffffffffffffffffff168273ffffffffffffffffffffffffffffffffffffffff161415610aa4576040517f08c379a0000000000000000000000000000000000000000000000000000000008152600401610a9b90610f55565b60405180910390fd5b610aaf838383610c45565b60008060008573ffffffffffffffffffffffffffffffffffffffff1673ffffffffffffffffffffffffffffffffffffffff16815260200190815260200160002054905081811015610b35576040517f08c379a0000000000000000000000000000000000000000000000000000000008152600401610b2c90610f95565b60405180910390fd5b8181036000808673ffffffffffffffffffffffffffffffffffffffff1673ffffffffffffffffffffffffffffffffffffffff16815260200190815260200160002081905550816000808573ffffffffffffffffffffffffffffffffffffffff1673ffffffffffffffffffffffffffffffffffffffff1681526020019081526020016000206000828254610bc89190611087565b925050819055508273ffffffffffffffffffffffffffffffffffffffff168473ffffffffffffffffffffffffffffffffffffffff167fddf252ad1be2c89b69c2b068fc378daa952ba7f163c4a11628f55a4df523b3ef84604051610c2c9190611035565b60405180910390a3610c3f848484610c4a565b50505050565b505050565b505050565b600081359050610c5e81611453565b92915050565b600081359050610c738161146a565b92915050565b600060208284031215610c8b57600080fd5b6000610c9984828501610c4f565b91505092915050565b60008060408385031215610cb557600080fd5b6000610cc385828601610c4f565b9250506020610cd485828601610c4f565b9150509250929050565b600080600060608486031215610cf357600080fd5b6000610d0186828701610c4f565b9350506020610d1286828701610c4f565b9250506040610d2386828701610c64565b9150509250925092565b60008060408385031215610d4057600080fd5b6000610d4e85828601610c4f565b9250506020610d5f85828601610c64565b9150509250929050565b610d72816110dd565b82525050565b610d81816110ef565b82525050565b610d9081611132565b82525050565b6000610da18261106b565b610dab8185611076565b9350610dbb818560208601611156565b610dc481611219565b840191505092915050565b6000610ddc602383611076565b9150610de78261122a565b604082019050919050565b6000610dff602283611076565b9150610e0a82611279565b604082019050919050565b6000610e22602683611076565b9150610e2d826112c8565b604082019050919050565b6000610e45602883611076565b9150610e5082611317565b604082019050919050565b6000610e68602583611076565b9150610e7382611366565b604082019050919050565b6000610e8b602483611076565b9150610e96826113b5565b604082019050919050565b6000610eae602583611076565b9150610eb982611404565b604082019050919050565b610ecd8161111b565b82525050565b610edc81611125565b82525050565b6000602082019050610ef76000830184610d69565b92915050565b6000602082019050610f126000830184610d78565b92915050565b6000602082019050610f2d6000830184610d87565b92915050565b60006020820190508181036000830152610f4d8184610d96565b905092915050565b60006020820190508181036000830152610f6e81610dcf565b9050919050565b60006020820190508181036000830152610f8e81610df2565b9050919050565b60006020820190508181036000830152610fae81610e15565b9050919050565b60006020820190508181036000830152610fce81610e38565b9050919050565b60006020820190508181036000830152610fee81610e5b565b9050919050565b6000602082019050818103600083015261100e81610e7e565b9050919050565b6000602082019050818103600083015261102e81610ea1565b9050919050565b600060208201905061104a6000830184610ec4565b92915050565b60006020820190506110656000830184610ed3565b92915050565b600081519050919050565b600082825260208201905092915050565b60006110928261111b565b915061109d8361111b565b9250827fffffffffffffffffffffffffffffffffffffffffffffffffffffffffffffffff038211156110d2576110d16111bb565b5b828201905092915050565b60006110e8826110fb565b9050919050565b60008115159050919050565b600073ffffffffffffffffffffffffffffffffffffffff82169050919050565b6000819050919050565b600060ff82169050919050565b600061113d82611144565b9050919050565b600061114f826110fb565b9050919050565b60005b83811015611174578082015181840152602081019050611159565b83811115611183576000848401525b50505050565b600060028204905060018216806111a157607f821691505b602082108114156111b5576111b46111ea565b5b50919050565b7f4e487b7100000000000000000000000000000000000000000000000000000000600052601160045260246000fd5b7f4e487b7100000000000000000000000000000000000000000000000000000000600052602260045260246000fd5b6000601f19601f8301169050919050565b7f45524332303a207472616e7366657220746f20746865207a65726f206164647260008201527f6573730000000000000000000000000000000000000000000000000000000000602082015250565b7f45524332303a20617070726f766520746f20746865207a65726f20616464726560008201527f7373000000000000000000000000000000000000000000000000000000000000602082015250565b7f45524332303a207472616e7366657220616d6f756e742065786365656473206260008201527f616c616e63650000000000000000000000000000000000000000000000000000602082015250565b7f45524332303a207472616e7366657220616d6f756e742065786365656473206160008201527f6c6c6f77616e6365000000000000000000000000000000000000000000000000602082015250565b7f45524332303a207472616e736665722066726f6d20746865207a65726f20616460008201527f6472657373000000000000000000000000000000000000000000000000000000602082015250565b7f45524332303a20617070726f76652066726f6d20746865207a65726f2061646460008201527f7265737300000000000000000000000000000000000000000000000000000000602082015250565b7f45524332303a2064656372656173656420616c6c6f77616e63652062656c6f7760008201527f207a65726f000000000000000000000000000000000000000000000000000000602082015250565b61145c816110dd565b811461146757600080fd5b50565b6114738161111b565b811461147e57600080fd5b5056fea264697066735822122008cf0f8e94cc95f176fbaa478c1d9c73ba2064d21f228f3daeb022fa08b9c63664736f6c63430008040033",
  "linkReferences": {},
  "deployedLinkReferences": {}
}