{
  "_format": "hh-sol-artifact-1",
  "contractName": "TokenFactory",
  "sourceName": "contracts/tokenFactory.sol",
  "abi": [
    {
      "anonymous": false,
      "inputs": [
        {
          "indexed": true,
          "internalType": "string",
          "name": "name",
          "type": "string"
        },
        {
          "indexed": true,
          "internalType": "string",
          "name": "symbol",
          "type": "string"
        },
        {
          "indexed": true,
          "internalType": "address",
          "name": "tokenAddress",
          "type": "address"
        }
      ],
      "name": "TokenCreated",
      "type": "event"
    },
    {
      "inputs": [
        {
          "internalType": "address",
          "name": "token",
          "type": "address"
        },
        {
          "internalType": "uint256",
          "name": "amount",
          "type": "uint256"
        }
      ],
      "name": "approveToken",
      "outputs": [],
      "stateMutability": "nonpayable",
      "type": "function"
    },
    {
      "inputs": [
        {
          "internalType": "uint256",
          "name": "initialSupply",
          "type": "uint256"
        },
        {
          "internalType": "string",
          "name": "name",
          "type": "string"
        },
        {
          "internalType": "string",
          "name": "symbol",
          "type": "string"
        }
      ],
      "name": "createToken",
      "outputs": [],
      "stateMutability": "nonpayable",
      "type": "function"
    },
    {
      "inputs": [
        {
          "internalType": "uint256",
          "name": "",
          "type": "uint256"
        }
      ],
      "name": "createdTokens",
      "outputs": [
        {
          "internalType": "string",
          "name": "name",
          "type": "string"
        },
        {
          "internalType": "string",
          "name": "symbol",
          "type": "string"
        },
        {
          "internalType": "address",
          "name": "tokenAddress",
          "type": "address"
        },
        {
          "internalType": "address",
          "name": "owner",
          "type": "address"
        }
      ],
      "stateMutability": "view",
      "type": "function"
    },
    {
      "inputs": [],
      "name": "createdTokensCount",
      "outputs": [
        {
          "internalType": "uint256",
          "name": "",
          "type": "uint256"
        }
      ],
      "stateMutability": "view",
      "type": "function"
    },
    {
      "inputs": [],
      "name": "getCreatedTokens",
      "outputs": [
        {
          "components": [
            {
              "internalType": "string",
              "name": "name",
              "type": "string"
            },
            {
              "internalType": "string",
              "name": "symbol",
              "type": "string"
            },
            {
              "internalType": "address",
              "name": "tokenAddress",
              "type": "address"
            },
            {
              "internalType": "address",
              "name": "owner",
              "type": "address"
            }
          ],
          "internalType": "struct TokenFactory.FactoryToken[]",
          "name": "",
          "type": "tuple[]"
        }
      ],
      "stateMutability": "view",
      "type": "function"
    },
    {
      "inputs": [
        {
          "internalType": "address",
          "name": "token",
          "type": "address"
        }
      ],
      "name": "getToken",
      "outputs": [
        {
          "internalType": "string",
          "name": "",
          "type": "string"
        },
        {
          "internalType": "string",
          "name": "",
          "type": "string"
        },
        {
          "internalType": "uint256",
          "name": "",
          "type": "uint256"
        }
      ],
      "stateMutability": "view",
      "type": "function"
    }
  ],
  "bytecode": "0x608060405234801561001057600080fd5b506134d7806100206000396000f3fe60806040523480156200001157600080fd5b50600436106200006a5760003560e01c8063022fc88b146200006f57806359770438146200008f57806380890ed814620000c757806397a2af7c14620000e9578063b1037e78146200010b578063d782d647146200012b575b600080fd5b6200008d600480360381019062000087919062000b99565b62000164565b005b620000ad6004803603810190620000a7919062000b6d565b62000210565b604051620000be939291906200105d565b60405180910390f35b620000d1620003d0565b604051620000e09190620010a8565b60405180910390f35b620000f3620003d6565b60405162000102919062000fde565b60405180910390f35b62000129600480360381019062000123919062000ca3565b62000617565b005b62000149600480360381019062000143919062000c4b565b620007ce565b6040516200015b949392919062001002565b60405180910390f35b8173ffffffffffffffffffffffffffffffffffffffff1663095ea7b373d99d1c33f9fc3444f8101754abc46c52416550d1836040518363ffffffff1660e01b8152600401620001b592919062000f56565b602060405180830381600087803b158015620001d057600080fd5b505af1158015620001e5573d6000803e3d6000fd5b505050506040513d601f19601f820116820180604052508101906200020b919062000bda565b505050565b6060806000808473ffffffffffffffffffffffffffffffffffffffff166370a08231336040518263ffffffff1660e01b815260040162000251919062000f39565b60206040518083038186803b1580156200026a57600080fd5b505afa1580156200027f573d6000803e3d6000fd5b505050506040513d601f19601f82011682018060405250810190620002a5919062000c77565b905060008573ffffffffffffffffffffffffffffffffffffffff166306fdde036040518163ffffffff1660e01b815260040160006040518083038186803b158015620002f057600080fd5b505afa15801562000305573d6000803e3d6000fd5b505050506040513d6000823e3d601f19601f8201168201806040525081019062000330919062000c06565b905060008673ffffffffffffffffffffffffffffffffffffffff166395d89b416040518163ffffffff1660e01b815260040160006040518083038186803b1580156200037b57600080fd5b505afa15801562000390573d6000803e3d6000fd5b505050506040513d6000823e3d601f19601f82011682018060405250810190620003bb919062000c06565b90508181849550955095505050509193909250565b60015481565b60606000805480602002602001604051908101604052809291908181526020016000905b828210156200060e5783829060005260206000209060040201604051806080016040529081600082018054620004309062001281565b80601f01602080910402602001604051908101604052809291908181526020018280546200045e9062001281565b8015620004af5780601f106200048357610100808354040283529160200191620004af565b820191906000526020600020905b8154815290600101906020018083116200049157829003601f168201915b50505050508152602001600182018054620004ca9062001281565b80601f0160208091040260200160405190810160405280929190818152602001828054620004f89062001281565b8015620005495780601f106200051d5761010080835404028352916020019162000549565b820191906000526020600020905b8154815290600101906020018083116200052b57829003601f168201915b505050505081526020016002820160009054906101000a900473ffffffffffffffffffffffffffffffffffffffff1673ffffffffffffffffffffffffffffffffffffffff1673ffffffffffffffffffffffffffffffffffffffff1681526020016003820160009054906101000a900473ffffffffffffffffffffffffffffffffffffffff1673ffffffffffffffffffffffffffffffffffffffff1673ffffffffffffffffffffffffffffffffffffffff168152505081526020019060010190620003fa565b50505050905090565b6000338484846040516200062b906200096f565b6200063a949392919062000f83565b604051809103906000f08015801562000657573d6000803e3d6000fd5b509050600080600181600181540180825580915050039060005260206000209060040201905083816000019080519060200190620006979291906200097d565b5082816001019080519060200190620006b29291906200097d565b50818160020160006101000a81548173ffffffffffffffffffffffffffffffffffffffff021916908373ffffffffffffffffffffffffffffffffffffffff160217905550338160030160006101000a81548173ffffffffffffffffffffffffffffffffffffffff021916908373ffffffffffffffffffffffffffffffffffffffff16021790555060018060008282546200074d919062001195565b925050819055508173ffffffffffffffffffffffffffffffffffffffff16836040516200077b919062000f20565b60405180910390208560405162000793919062000f20565b60405180910390207f027f63f2106ab5582d6af359845002752758db257ae044e4722a205fc10ccdaa60405160405180910390a45050505050565b60008181548110620007df57600080fd5b9060005260206000209060040201600091509050806000018054620008049062001281565b80601f0160208091040260200160405190810160405280929190818152602001828054620008329062001281565b8015620008835780601f10620008575761010080835404028352916020019162000883565b820191906000526020600020905b8154815290600101906020018083116200086557829003601f168201915b5050505050908060010180546200089a9062001281565b80601f0160208091040260200160405190810160405280929190818152602001828054620008c89062001281565b8015620009195780601f10620008ed5761010080835404028352916020019162000919565b820191906000526020600020905b815481529060010190602001808311620008fb57829003601f168201915b5050505050908060020160009054906101000a900473ffffffffffffffffffffffffffffffffffffffff16908060030160009054906101000a900473ffffffffffffffffffffffffffffffffffffffff16905084565b6120c880620013da83390190565b8280546200098b9062001281565b90600052602060002090601f016020900481019282620009af5760008555620009fb565b82601f10620009ca57805160ff1916838001178555620009fb565b82800160010185558215620009fb579182015b82811115620009fa578251825591602001919060010190620009dd565b5b50905062000a0a919062000a0e565b5090565b5b8082111562000a2957600081600090555060010162000a0f565b5090565b600062000a4462000a3e84620010ee565b620010c5565b90508281526020810184848401111562000a5d57600080fd5b62000a6a8482856200123c565b509392505050565b600062000a8962000a8384620010ee565b620010c5565b90508281526020810184848401111562000aa257600080fd5b62000aaf8482856200124b565b509392505050565b60008135905062000ac8816200138b565b92915050565b60008151905062000adf81620013a5565b92915050565b600082601f83011262000af757600080fd5b813562000b0984826020860162000a2d565b91505092915050565b600082601f83011262000b2457600080fd5b815162000b3684826020860162000a72565b91505092915050565b60008135905062000b5081620013bf565b92915050565b60008151905062000b6781620013bf565b92915050565b60006020828403121562000b8057600080fd5b600062000b908482850162000ab7565b91505092915050565b6000806040838503121562000bad57600080fd5b600062000bbd8582860162000ab7565b925050602062000bd08582860162000b3f565b9150509250929050565b60006020828403121562000bed57600080fd5b600062000bfd8482850162000ace565b91505092915050565b60006020828403121562000c1957600080fd5b600082015167ffffffffffffffff81111562000c3457600080fd5b62000c428482850162000b12565b91505092915050565b60006020828403121562000c5e57600080fd5b600062000c6e8482850162000b3f565b91505092915050565b60006020828403121562000c8a57600080fd5b600062000c9a8482850162000b56565b91505092915050565b60008060006060848603121562000cb957600080fd5b600062000cc98682870162000b3f565b935050602084013567ffffffffffffffff81111562000ce757600080fd5b62000cf58682870162000ae5565b925050604084013567ffffffffffffffff81111562000d1357600080fd5b62000d218682870162000ae5565b9150509250925092565b600062000d39838362000e9d565b905092915050565b62000d4c81620011f2565b82525050565b62000d5d81620011f2565b82525050565b600062000d708262001134565b62000d7c818562001157565b93508360208202850162000d908562001124565b8060005b8581101562000dd2578484038952815162000db0858262000d2b565b945062000dbd836200114a565b925060208a0199505060018101905062000d94565b50829750879550505050505092915050565b600062000df1826200113f565b62000dfd818562001168565b935062000e0f8185602086016200124b565b62000e1a816200137a565b840191505092915050565b600062000e32826200113f565b62000e3e818562001179565b935062000e508185602086016200124b565b62000e5b816200137a565b840191505092915050565b600062000e73826200113f565b62000e7f81856200118a565b935062000e918185602086016200124b565b80840191505092915050565b6000608083016000830151848203600086015262000ebc828262000de4565b9150506020830151848203602086015262000ed8828262000de4565b915050604083015162000eef604086018262000d41565b50606083015162000f04606086018262000d41565b508091505092915050565b62000f1a8162001232565b82525050565b600062000f2e828462000e66565b915081905092915050565b600060208201905062000f50600083018462000d52565b92915050565b600060408201905062000f6d600083018562000d52565b62000f7c602083018462000f0f565b9392505050565b600060808201905062000f9a600083018762000d52565b62000fa9602083018662000f0f565b818103604083015262000fbd818562000e25565b9050818103606083015262000fd3818462000e25565b905095945050505050565b6000602082019050818103600083015262000ffa818462000d63565b905092915050565b600060808201905081810360008301526200101e818762000e25565b9050818103602083015262001034818662000e25565b905062001045604083018562000d52565b62001054606083018462000d52565b95945050505050565b6000606082019050818103600083015262001079818662000e25565b905081810360208301526200108f818562000e25565b9050620010a0604083018462000f0f565b949350505050565b6000602082019050620010bf600083018462000f0f565b92915050565b6000620010d1620010e4565b9050620010df8282620012b7565b919050565b6000604051905090565b600067ffffffffffffffff8211156200110c576200110b6200134b565b5b62001117826200137a565b9050602081019050919050565b6000819050602082019050919050565b600081519050919050565b600081519050919050565b6000602082019050919050565b600082825260208201905092915050565b600082825260208201905092915050565b600082825260208201905092915050565b600081905092915050565b6000620011a28262001232565b9150620011af8362001232565b9250827fffffffffffffffffffffffffffffffffffffffffffffffffffffffffffffffff03821115620011e757620011e6620012ed565b5b828201905092915050565b6000620011ff8262001212565b9050919050565b60008115159050919050565b600073ffffffffffffffffffffffffffffffffffffffff82169050919050565b6000819050919050565b82818337600083830152505050565b60005b838110156200126b5780820151818401526020810190506200124e565b838111156200127b576000848401525b50505050565b600060028204905060018216806200129a57607f821691505b60208210811415620012b157620012b06200131c565b5b50919050565b620012c2826200137a565b810181811067ffffffffffffffff82111715620012e457620012e36200134b565b5b80604052505050565b7f4e487b7100000000000000000000000000000000000000000000000000000000600052601160045260246000fd5b7f4e487b7100000000000000000000000000000000000000000000000000000000600052602260045260246000fd5b7f4e487b7100000000000000000000000000000000000000000000000000000000600052604160045260246000fd5b6000601f19601f8301169050919050565b6200139681620011f2565b8114620013a257600080fd5b50565b620013b08162001206565b8114620013bc57600080fd5b50565b620013ca8162001232565b8114620013d657600080fd5b5056fe60c06040523480156200001157600080fd5b50604051620020c8380380620020c88339818101604052810190620000379190620005d7565b81818160039080519060200190620000519291906200045b565b5080600490805190602001906200006a9291906200045b565b505050600073d99d1c33f9fc3444f8101754abc46c52416550d190508073ffffffffffffffffffffffffffffffffffffffff1663c45a01556040518163ffffffff1660e01b815260040160206040518083038186803b158015620000cd57600080fd5b505afa158015620000e2573d6000803e3d6000fd5b505050506040513d601f19601f82011682018060405250810190620001089190620005ab565b73ffffffffffffffffffffffffffffffffffffffff1663c9c65396308373ffffffffffffffffffffffffffffffffffffffff1663ad5c46486040518163ffffffff1660e01b815260040160206040518083038186803b1580156200016b57600080fd5b505afa15801562000180573d6000803e3d6000fd5b505050506040513d601f19601f82011682018060405250810190620001a69190620005ab565b6040518363ffffffff1660e01b8152600401620001c5929190620006be565b602060405180830381600087803b158015620001e057600080fd5b505af1158015620001f5573d6000803e3d6000fd5b505050506040513d601f19601f820116820180604052508101906200021b9190620005ab565b73ffffffffffffffffffffffffffffffffffffffff1660a08173ffffffffffffffffffffffffffffffffffffffff1660601b815250508073ffffffffffffffffffffffffffffffffffffffff1660808173ffffffffffffffffffffffffffffffffffffffff1660601b81525050620002c4856200029d620002cf60201b60201c565b600a620002ab919062000852565b86620002b891906200098f565b620002d860201b60201c565b505050505062000be5565b60006012905090565b600073ffffffffffffffffffffffffffffffffffffffff168273ffffffffffffffffffffffffffffffffffffffff1614156200034b576040517f08c379a00000000000000000000000000000000000000000000000000000000081526004016200034290620006eb565b60405180910390fd5b6200035f600083836200045160201b60201c565b80600260008282546200037391906200079a565b92505081905550806000808473ffffffffffffffffffffffffffffffffffffffff1673ffffffffffffffffffffffffffffffffffffffff1681526020019081526020016000206000828254620003ca91906200079a565b925050819055508173ffffffffffffffffffffffffffffffffffffffff16600073ffffffffffffffffffffffffffffffffffffffff167fddf252ad1be2c89b69c2b068fc378daa952ba7f163c4a11628f55a4df523b3ef836040516200043191906200070d565b60405180910390a36200044d600083836200045660201b60201c565b5050565b505050565b505050565b828054620004699062000a71565b90600052602060002090601f0160209004810192826200048d5760008555620004d9565b82601f10620004a857805160ff1916838001178555620004d9565b82800160010185558215620004d9579182015b82811115620004d8578251825591602001919060010190620004bb565b5b509050620004e89190620004ec565b5090565b5b8082111562000507576000816000905550600101620004ed565b5090565b6000620005226200051c8462000753565b6200072a565b9050828152602081018484840111156200053b57600080fd5b6200054884828562000a3b565b509392505050565b600081519050620005618162000bb1565b92915050565b600082601f8301126200057957600080fd5b81516200058b8482602086016200050b565b91505092915050565b600081519050620005a58162000bcb565b92915050565b600060208284031215620005be57600080fd5b6000620005ce8482850162000550565b91505092915050565b60008060008060808587031215620005ee57600080fd5b6000620005fe8782880162000550565b9450506020620006118782880162000594565b935050604085015167ffffffffffffffff8111156200062f57600080fd5b6200063d8782880162000567565b925050606085015167ffffffffffffffff8111156200065b57600080fd5b620006698782880162000567565b91505092959194509250565b6200068081620009f0565b82525050565b600062000695601f8362000789565b9150620006a28262000b88565b602082019050919050565b620006b88162000a24565b82525050565b6000604082019050620006d5600083018562000675565b620006e4602083018462000675565b9392505050565b60006020820190508181036000830152620007068162000686565b9050919050565b6000602082019050620007246000830184620006ad565b92915050565b60006200073662000749565b905062000744828262000aa7565b919050565b6000604051905090565b600067ffffffffffffffff82111562000771576200077062000b3b565b5b6200077c8262000b6a565b9050602081019050919050565b600082825260208201905092915050565b6000620007a78262000a24565b9150620007b48362000a24565b9250827fffffffffffffffffffffffffffffffffffffffffffffffffffffffffffffffff03821115620007ec57620007eb62000add565b5b828201905092915050565b6000808291508390505b6001851115620008495780860481111562000821576200082062000add565b5b6001851615620008315780820291505b8081029050620008418562000b7b565b945062000801565b94509492505050565b60006200085f8262000a24565b91506200086c8362000a2e565b92506200089b7fffffffffffffffffffffffffffffffffffffffffffffffffffffffffffffffff8484620008a3565b905092915050565b600082620008b5576001905062000988565b81620008c5576000905062000988565b8160018114620008de5760028114620008e9576200091f565b600191505062000988565b60ff841115620008fe57620008fd62000add565b5b8360020a91508482111562000918576200091762000add565b5b5062000988565b5060208310610133831016604e8410600b8410161715620009595782820a90508381111562000953576200095262000add565b5b62000988565b620009688484846001620007f7565b9250905081840481111562000982576200098162000add565b5b81810290505b9392505050565b60006200099c8262000a24565b9150620009a98362000a24565b9250817fffffffffffffffffffffffffffffffffffffffffffffffffffffffffffffffff0483118215151615620009e557620009e462000add565b5b828202905092915050565b6000620009fd8262000a04565b9050919050565b600073ffffffffffffffffffffffffffffffffffffffff82169050919050565b6000819050919050565b600060ff82169050919050565b60005b8381101562000a5b57808201518184015260208101905062000a3e565b8381111562000a6b576000848401525b50505050565b6000600282049050600182168062000a8a57607f821691505b6020821081141562000aa15762000aa062000b0c565b5b50919050565b62000ab28262000b6a565b810181811067ffffffffffffffff8211171562000ad45762000ad362000b3b565b5b80604052505050565b7f4e487b7100000000000000000000000000000000000000000000000000000000600052601160045260246000fd5b7f4e487b7100000000000000000000000000000000000000000000000000000000600052602260045260246000fd5b7f4e487b7100000000000000000000000000000000000000000000000000000000600052604160045260246000fd5b6000601f19601f8301169050919050565b60008160011c9050919050565b7f45524332303a206d696e7420746f20746865207a65726f206164647265737300600082015250565b62000bbc81620009f0565b811462000bc857600080fd5b50565b62000bd68162000a24565b811462000be257600080fd5b50565b60805160601c60a05160601c6114b762000c1160003960006105650152600061038a01526114b76000f3fe608060405234801561001057600080fd5b50600436106100cf5760003560e01c8063395093511161008c57806395d89b411161006657806395d89b411461022a578063a457c2d714610248578063a9059cbb14610278578063dd62ed3e146102a8576100cf565b806339509351146101ac57806349bd5a5e146101dc57806370a08231146101fa576100cf565b806306fdde03146100d4578063095ea7b3146100f25780631694505e1461012257806318160ddd1461014057806323b872dd1461015e578063313ce5671461018e575b600080fd5b6100dc6102d8565b6040516100e99190610f33565b60405180910390f35b61010c60048036038101906101079190610d2d565b61036a565b6040516101199190610efd565b60405180910390f35b61012a610388565b6040516101379190610f18565b60405180910390f35b6101486103ac565b6040516101559190611035565b60405180910390f35b61017860048036038101906101739190610cde565b6103b6565b6040516101859190610efd565b60405180910390f35b6101966104ae565b6040516101a39190611050565b60405180910390f35b6101c660048036038101906101c19190610d2d565b6104b7565b6040516101d39190610efd565b60405180910390f35b6101e4610563565b6040516101f19190610ee2565b60405180910390f35b610214600480360381019061020f9190610c79565b610587565b6040516102219190611035565b60405180910390f35b6102326105cf565b60405161023f9190610f33565b60405180910390f35b610262600480360381019061025d9190610d2d565b610661565b60405161026f9190610efd565b60405180910390f35b610292600480360381019061028d9190610d2d565b61074c565b60405161029f9190610efd565b60405180910390f35b6102c260048036038101906102bd9190610ca2565b61076a565b6040516102cf9190611035565b60405180910390f35b6060600380546102e790611189565b80601f016020809104026020016040519081016040528092919081815260200182805461031390611189565b80156103605780601f1061033557610100808354040283529160200191610360565b820191906000526020600020905b81548152906001019060200180831161034357829003601f168201915b5050505050905090565b600061037e6103776107f1565b84846107f9565b6001905092915050565b7f000000000000000000000000000000000000000000000000000000000000000081565b6000600254905090565b60006103c38484846109c4565b6000600160008673ffffffffffffffffffffffffffffffffffffffff1673ffffffffffffffffffffffffffffffffffffffff168152602001908152602001600020600061040e6107f1565b73ffffffffffffffffffffffffffffffffffffffff1673ffffffffffffffffffffffffffffffffffffffff1681526020019081526020016000205490508281101561048e576040517f08c379a000000000000000000000000000000000000000000000000000000000815260040161048590610fb5565b60405180910390fd5b6104a28561049a6107f1565b8584036107f9565b60019150509392505050565b60006012905090565b60006105596104c46107f1565b8484600160006104d26107f1565b73ffffffffffffffffffffffffffffffffffffffff1673ffffffffffffffffffffffffffffffffffffffff16815260200190815260200160002060008873ffffffffffffffffffffffffffffffffffffffff1673ffffffffffffffffffffffffffffffffffffffff168152602001908152602001600020546105549190611087565b6107f9565b6001905092915050565b7f000000000000000000000000000000000000000000000000000000000000000081565b60008060008373ffffffffffffffffffffffffffffffffffffffff1673ffffffffffffffffffffffffffffffffffffffff168152602001908152602001600020549050919050565b6060600480546105de90611189565b80601f016020809104026020016040519081016040528092919081815260200182805461060a90611189565b80156106575780601f1061062c57610100808354040283529160200191610657565b820191906000526020600020905b81548152906001019060200180831161063a57829003601f168201915b5050505050905090565b600080600160006106706107f1565b73ffffffffffffffffffffffffffffffffffffffff1673ffffffffffffffffffffffffffffffffffffffff16815260200190815260200160002060008573ffffffffffffffffffffffffffffffffffffffff1673ffffffffffffffffffffffffffffffffffffffff1681526020019081526020016000205490508281101561072d576040517f08c379a000000000000000000000000000000000000000000000000000000000815260040161072490611015565b60405180910390fd5b6107416107386107f1565b858584036107f9565b600191505092915050565b60006107606107596107f1565b84846109c4565b6001905092915050565b6000600160008473ffffffffffffffffffffffffffffffffffffffff1673ffffffffffffffffffffffffffffffffffffffff16815260200190815260200160002060008373ffffffffffffffffffffffffffffffffffffffff1673ffffffffffffffffffffffffffffffffffffffff16815260200190815260200160002054905092915050565b600033905090565b600073ffffffffffffffffffffffffffffffffffffffff168373ffffffffffffffffffffffffffffffffffffffff161415610869576040517f08c379a000000000000000000000000000000000000000000000000000000000815260040161086090610ff5565b60405180910390fd5b600073ffffffffffffffffffffffffffffffffffffffff168273ffffffffffffffffffffffffffffffffffffffff1614156108d9576040517f08c379a00000000000000000000000000000000000000000000000000000000081526004016108d090610f75565b60405180910390fd5b80600160008573ffffffffffffffffffffffffffffffffffffffff1673ffffffffffffffffffffffffffffffffffffffff16815260200190815260200160002060008473ffffffffffffffffffffffffffffffffffffffff1673ffffffffffffffffffffffffffffffffffffffff168152602001908152602001600020819055508173ffffffffffffffffffffffffffffffffffffffff168373ffffffffffffffffffffffffffffffffffffffff167f8c5be1e5ebec7d5bd14f71427d1e84f3dd0314c0f7b2291e5b200ac8c7c3b925836040516109b79190611035565b60405180910390a3505050565b600073ffffffffffffffffffffffffffffffffffffffff168373ffffffffffffffffffffffffffffffffffffffff161415610a34576040517f08c379a0000000000000000000000000000000000000000000000000000000008152600401610a2b90610fd5565b60405180910390fd5b600073ffffffffffffffffffffffffffffffffffffffff168273ffffffffffffffffffffffffffffffffffffffff161415610aa4576040517f08c379a0000000000000000000000000000000000000000000000000000000008152600401610a9b90610f55565b60405180910390fd5b610aaf838383610c45565b60008060008573ffffffffffffffffffffffffffffffffffffffff1673ffffffffffffffffffffffffffffffffffffffff16815260200190815260200160002054905081811015610b35576040517f08c379a0000000000000000000000000000000000000000000000000000000008152600401610b2c90610f95565b60405180910390fd5b8181036000808673ffffffffffffffffffffffffffffffffffffffff1673ffffffffffffffffffffffffffffffffffffffff16815260200190815260200160002081905550816000808573ffffffffffffffffffffffffffffffffffffffff1673ffffffffffffffffffffffffffffffffffffffff1681526020019081526020016000206000828254610bc89190611087565b925050819055508273ffffffffffffffffffffffffffffffffffffffff168473ffffffffffffffffffffffffffffffffffffffff167fddf252ad1be2c89b69c2b068fc378daa952ba7f163c4a11628f55a4df523b3ef84604051610c2c9190611035565b60405180910390a3610c3f848484610c4a565b50505050565b505050565b505050565b600081359050610c5e81611453565b92915050565b600081359050610c738161146a565b92915050565b600060208284031215610c8b57600080fd5b6000610c9984828501610c4f565b91505092915050565b60008060408385031215610cb557600080fd5b6000610cc385828601610c4f565b9250506020610cd485828601610c4f565b9150509250929050565b600080600060608486031215610cf357600080fd5b6000610d0186828701610c4f565b9350506020610d1286828701610c4f565b9250506040610d2386828701610c64565b9150509250925092565b60008060408385031215610d4057600080fd5b6000610d4e85828601610c4f565b9250506020610d5f85828601610c64565b9150509250929050565b610d72816110dd565b82525050565b610d81816110ef565b82525050565b610d9081611132565b82525050565b6000610da18261106b565b610dab8185611076565b9350610dbb818560208601611156565b610dc481611219565b840191505092915050565b6000610ddc602383611076565b9150610de78261122a565b604082019050919050565b6000610dff602283611076565b9150610e0a82611279565b604082019050919050565b6000610e22602683611076565b9150610e2d826112c8565b604082019050919050565b6000610e45602883611076565b9150610e5082611317565b604082019050919050565b6000610e68602583611076565b9150610e7382611366565b604082019050919050565b6000610e8b602483611076565b9150610e96826113b5565b604082019050919050565b6000610eae602583611076565b9150610eb982611404565b604082019050919050565b610ecd8161111b565b82525050565b610edc81611125565b82525050565b6000602082019050610ef76000830184610d69565b92915050565b6000602082019050610f126000830184610d78565b92915050565b6000602082019050610f2d6000830184610d87565b92915050565b60006020820190508181036000830152610f4d8184610d96565b905092915050565b60006020820190508181036000830152610f6e81610dcf565b9050919050565b60006020820190508181036000830152610f8e81610df2565b9050919050565b60006020820190508181036000830152610fae81610e15565b9050919050565b60006020820190508181036000830152610fce81610e38565b9050919050565b60006020820190508181036000830152610fee81610e5b565b9050919050565b6000602082019050818103600083015261100e81610e7e565b9050919050565b6000602082019050818103600083015261102e81610ea1565b9050919050565b600060208201905061104a6000830184610ec4565b92915050565b60006020820190506110656000830184610ed3565b92915050565b600081519050919050565b600082825260208201905092915050565b60006110928261111b565b915061109d8361111b565b9250827fffffffffffffffffffffffffffffffffffffffffffffffffffffffffffffffff038211156110d2576110d16111bb565b5b828201905092915050565b60006110e8826110fb565b9050919050565b60008115159050919050565b600073ffffffffffffffffffffffffffffffffffffffff82169050919050565b6000819050919050565b600060ff82169050919050565b600061113d82611144565b9050919050565b600061114f826110fb565b9050919050565b60005b83811015611174578082015181840152602081019050611159565b83811115611183576000848401525b50505050565b600060028204905060018216806111a157607f821691505b602082108114156111b5576111b46111ea565b5b50919050565b7f4e487b7100000000000000000000000000000000000000000000000000000000600052601160045260246000fd5b7f4e487b7100000000000000000000000000000000000000000000000000000000600052602260045260246000fd5b6000601f19601f8301169050919050565b7f45524332303a207472616e7366657220746f20746865207a65726f206164647260008201527f6573730000000000000000000000000000000000000000000000000000000000602082015250565b7f45524332303a20617070726f766520746f20746865207a65726f20616464726560008201527f7373000000000000000000000000000000000000000000000000000000000000602082015250565b7f45524332303a207472616e7366657220616d6f756e742065786365656473206260008201527f616c616e63650000000000000000000000000000000000000000000000000000602082015250565b7f45524332303a207472616e7366657220616d6f756e742065786365656473206160008201527f6c6c6f77616e6365000000000000000000000000000000000000000000000000602082015250565b7f45524332303a207472616e736665722066726f6d20746865207a65726f20616460008201527f6472657373000000000000000000000000000000000000000000000000000000602082015250565b7f45524332303a20617070726f76652066726f6d20746865207a65726f2061646460008201527f7265737300000000000000000000000000000000000000000000000000000000602082015250565b7f45524332303a2064656372656173656420616c6c6f77616e63652062656c6f7760008201527f207a65726f000000000000000000000000000000000000000000000000000000602082015250565b61145c816110dd565b811461146757600080fd5b50565b6114738161111b565b811461147e57600080fd5b5056fea264697066735822122008cf0f8e94cc95f176fbaa478c1d9c73ba2064d21f228f3daeb022fa08b9c63664736f6c63430008040033a26469706673582212203ef4c0ca868abe6867c7fa7e53b20b013bb6866751e93a5773cd1dfca0362b3164736f6c63430008040033",
  "linkReferences": {},
  "deployedLinkReferences": {}
}